:100000000C942A000C943F000C943F000C943F0089
:100010000C943F000C943F000C943F000C943F0064
:100020000C943F000C943F000C943F000C943F0054
:100030000C943F000C943F000C943F000C943F0044
:100040000C943F000C943F000C943F000C943F0034
:100050000C943F0011241FBECFE5D8E0DEBFCDBF1A
:1000600010E0A0E6B0E0EEE2F7E002C005900D92ED
:10007000AA36B107D9F70E94F9020C9495030C94A3
:1000800000003E9A3F983D98379A3598339886B14C
:10009000887F826086B90895982F803260F487B196
:1000A000807E892B87B9369A349BFECF349A24B14F
:1000B00035B1C90108950895843008F07EC06830D4
:1000C00008F07BC0423008F078C0813029F18130DF
:1000D00038F0823009F43CC0833009F06EC053C060
:1000E000442371F0413009F068C02AB381E090E008
:1000F00002C0880F991F6A95E2F7282B2ABB089542
:100100002AB381E090E002C0880F991F6A95E2F758
:10011000809582238ABB0895442371F0413009F011
:100120004CC027B381E090E002C0880F991F6A9508
:10013000E2F7282B27BB089527B381E090E002C0A7
:10014000880F991F6A95E2F78095822387BB0895EF
:10015000442369F0413089F524B381E090E002C086
:10016000880F991F6A95E2F7282B24BB089524B3C2
:1001700081E090E002C0880F991F6A95E2F78095B0
:10018000822384BB0895442369F04130B1F421B344
:1001900081E090E002C0880F991F6A95E2F7282B52
:1001A00021BB089521B381E090E002C0880F991F20
:1001B0006A95E2F78095822381BB0895843008F028
:1001C0007EC0683008F07BC0423008F078C08130D3
:1001D00029F1813038F0823009F43CC0833009F0D5
:1001E0006EC053C0442371F0413009F068C02BB396
:1001F00081E090E002C0880F991F6A95E2F7282BF2
:100200002BBB08952BB381E090E002C0880F991FAB
:100210006A95E2F7809582238BBB0895442371F0A1
:10022000413009F04CC028B381E090E002C0880F53
:10023000991F6A95E2F7282B28BB089528B381E01F
:1002400090E002C0880F991F6A95E2F7809582239B
:1002500088BB0895442369F0413089F525B381E0D6
:1002600090E002C0880F991F6A95E2F7282B25BB02
:10027000089525B381E090E002C0880F991F6A9528
:10028000E2F78095822385BB0895442369F04130CD
:10029000B1F422B381E090E002C0880F991F6A9503
:1002A000E2F7282B22BB089522B381E090E002C040
:1002B000880F991F6A95E2F78095822382BB089583
:1002C0008430D0F46830C0F4813049F0813028F0B7
:1002D000823039F0833081F406C089B305C086B31B
:1002E00003C083B301C080B390E002C095958795A9
:1002F0006A95E2F78170089585E00895843080F46E
:10030000813049F0813028F0823039F0833041F477
:1003100006C06ABB089567BB089564BB089561BBBE
:100320000895843080F4813049F0813028F08230A3
:1003300039F0833041F406C06BBB089568BB089563
:1003400065BB089562BB0895833080F4813049F025
:10035000813028F0823039F0833041F406C089B30F
:10036000089586B3089583B3089580B308950F93D5
:100370001F93182F81E060E041E00E94DE0081E0E1
:1003800061E040E00E94DE0082E0612F0E94910166
:1003900081E062E041E00E94DE0000ED17E0C8016C
:1003A0000197F1F781E062E040E00E94DE00C801C1
:1003B0000197F1F71F910F9108956F927F928F929D
:1003C0009F92AF92BF92CF92DF92EF92FF920F93E4
:1003D0001F935B016C01611571058105910549F45D
:1003E00080E30E94B70181E0682E712C812C912C52
:1003F0002EC097FFF8CF8DE20E94B701D094C09431
:10040000B094A094A11CB11CC11CD11CECCFC401A0
:10041000B3012AE030E040E050E00E9439037B0164
:100420008C01C601B5010E947A033B014C016E0CA0
:100430007F1C801E911EC601B5012AE030E040E01D
:1004400050E00E947A03C901DA015C016D01A11438
:10045000B104C104D104D9F618C0C401B3012AE023
:1004600030E040E050E00E945803862F805D0E94FB
:10047000B701C401B3012AE030E040E050E00E943F
:100480005803C901DA013C014D0181E0681671048D
:100490008104910411F71F910F91FF90EF90DF906D
:1004A000CF90BF90AF909F908F907F906F90089566
:1004B000CF93DF93EC0103C00E94B701219688819E
:1004C0008823D1F7DF91CF9108950F931F93182FB1
:1004D00081E060E040E00E94DE0081E061E040E019
:1004E0000E94DE0082E0612F0E94910181E062E0C3
:1004F00041E00E94DE0000ED17E0C8010197F1F72E
:1005000081E062E040E00E94DE00C8010197F1F75F
:100510001F910F9108950F931F93CF93DF938B013A
:100520008330B1F0843028F4813071F0823070F47F
:1005300009C0853089F0853068F0863079F08730E1
:1005400091F40EC080E40DC088E40BC080E509C0C2
:1005500088E507C080E605C088E603C080E701C0E3
:1005600088E70E946502C0E0D0E0F801EC0FFD1FB3
:1005700080810E94B7012196C830D105B1F7DF9183
:10058000CF911F910F910895882319F0813041F484
:1005900003C0862F805802C0862F80540E946502B7
:1005A0008AE68A95F1F7089581E00E94650280EA63
:1005B0009FE00197F1F708951F9380E392EF019771
:1005C000F1F78CE30E9465021AE6812F8A95F1F714
:1005D0008CE00E9465021A95F1F781E00E946502A5
:1005E00080EA9FE00197F1F786E00E9465021F9183
:1005F0000895EF92FF920F931F93CF93DF9381E0C3
:1006000060E041E00E945C0081E061E041E00E9426
:100610005C0081E062E041E00E945C0082E06FEFFC
:100620000E947E010E9441000E94DC0280E690E070
:100630000E94580280E197E228EC30E0F9013197FE
:10064000F1F70197D9F7C8ECD0E080E00E944C00A8
:100650007C010E94D40200E010E0C801B7010E94B2
:10066000DD0184EC99E0FE013197F1F70197D9F7AC
:10067000ECCF629FD001739FF001829FE00DF11DCE
:10068000649FE00DF11D929FF00D839FF00D749F0C
:10069000F00D659FF00D9927729FB00DE11DF91FB8
:1006A000639FB00DE11DF91FBD01CF011124089515
:1006B000A1E21A2EAA1BBB1BFD010DC0AA1FBB1F66
:1006C000EE1FFF1FA217B307E407F50720F0A21BD8
:1006D000B30BE40BF50B661F771F881F991F1A9445
:1006E00069F760957095809590959B01AC01BD016F
:1006F000CF01089597FB092E05260ED057FD04D093
:10070000D7DF0AD0001C38F45095409530952195DC
:100710003F4F4F4F5F4F0895F6F790958095709536
:0E07200061957F4F8F4F9F4F0895F894FFCF44
:0A072E0048692054686572652100D7
:00000001FF
